:020000040800F2
:10000000F00600200D020008750300086D030008CB
:1000100071030008650300080104000800000000E7
:100020000000000000000000000000007D03000848
:10003000690300080000000079030008810300083C
:1000400027020008270200082702000827020008EC
:1000500027020008270200082702000827020008DC
:1000600027020008270200082702000827020008CC
:1000700027020008270200082702000827020008BC
:1000800027020008270200082702000827020008AC
:10009000270200082702000827020008270200089C
:1000A000270200082702000827020008270200088C
:1000B000270200082702000827020008270200087C
:1000C000270200082702000827020008270200086C
:1000D000270200082702000827020008270200085C
:1000E000270200082702000827020008000000007D
:1000F0000000000000000000000000000000000000
:10010000000000002702000827020008000000008D
:10011000270200082702000800000000000000007D
:10012000270200082702000827020008270200080B
:1001300000000000000000000000000000000000BF
:10014000000000000000000000000000270200087E
:10015000000000000000000027020008270200083D
:10016000000000000000000000000000270200085E
:1001700000F002F800F03AF80AA090E8000C82447F
:100180008344AAF10107DA4501D100F02FF8AFF25C
:10019000090EBAE80F0013F0010F18BFFB1A43F065
:1001A00001031847000D0000200D0000103A24BF85
:1001B00078C878C1FAD8520724BF30C830C144BFCC
:1001C00004680C607047000000230024002500260E
:1001D000103A28BF78C1FBD8520728BF30C148BFAA
:1001E0000B6070471FB51FBD10B510BD00F074F84F
:1001F0001146FFF7F7FF00F0BFFB00F0A6F803B4CD
:10020000FFF7F2FF03BC00F0FDF80000094880474B
:1002100009480047FEE7FEE7FEE7FEE7FEE7FEE7E8
:10022000FEE7FEE7FEE7FEE704480549054A064B00
:10023000704700008503000871010008F0000020ED
:10024000F0060020F0020020F002002070470000BD
:100250000FB4044910B503AA029800F00FF810BCBF
:100260005DF814FB88000020014900F009BB000084
:10027000880000207047704770477047074B70B583
:100280000D467B4400F011F80446284600F020F8A3
:1002900010B14FF0FF3070BD204670BDFB0500006F
:1002A00001694A1C02610878704700B58FB0CDE93A
:1002B00001310021059105497944CDE9031011462A
:1002C000684600F02EF80FB000BD0000E5FFFFFF0C
:1002D000007B00F080007047754600F03FF8AE46A6
:1002E00005006946534620F00700854618B020B542
:1002F000FFF79AFFBDE820404FF000064FF00007DF
:100300004FF000084FF0000BAC46ACE8C009ACE879
:10031000C009ACE8C009ACE8C00921F007018D466E
:1003200070472DE9F04106460024D6E90170F568D2
:100330008046304603E04146B847641C3046A84733
:100340000028F8D12046BDE8F08110B50446AFF38F
:1003500000802046BDE81040FFF751BF00487047BD
:1003600028000020FEE7000070470000FEE70000C4
:10037000FEE7000070470000704700007047000073
:100380007047000041F20000C4F20200C16941F070
:100390008051C16147F25001C4F200010A7842F075
:1003A00004020A70C16921F08051C161016841F005
:1003B0000101016001688907FCD5416821F0030152
:1003C000416000BF416811F00C0FFBD101684FF68E
:1003D000FF72CFF6F262114001600021416041F6E8
:1003E0001071C1624FF4801101634FF41F018160ED
:1003F0004EF60850CEF200004FF0006101607047E9
:10040000FEE70000704700002DE9F04182B00420B3
:1004100000F0F8FB40F22000C2F2000000684DF648
:100420008361C4F21B31A0FB0101880C40F2E001A2
:10043000C2F20001086008684FF47A71484340F244
:10044000DC01C2F2000140F200080860C2F20008BC
:10045000D8F80000012100F085F96C46204600F034
:1004600021FA40F20C06C2F2000640F2140531886F
:10047000C2F2000540F200472868C0F21017009150
:100480002146019700F018FAD8F80400012100F085
:1004900069F96C46204600F005FA71886868009199
:1004A0002146019700F008FAD8F80800012100F071
:1004B00059F96C46204600F0F5F9B188A86800911A
:1004C0002146019700F0F8F9308800281CBF296800
:1004D0000861708800281CBF69680861B08800281E
:1004E0001CBFA96808610220C0F218000121012583
:1004F00000F038F96C46204600F0D4F942F60000CE
:10050000C0F20010CDE9005040F60000C4F2010036
:10051000214600F0D1F902B0BDE8F08141F20401BA
:10052000C4F202010A6800F00F0022F0F00242EA71
:10053000001008607047000041F20401C4F202019B
:100540000A6800F0070022F4E06242EA0020086036
:100550007047000041F20401C4F202010A6800F091
:10056000070022F4605242EAC02008607047000091
:1005700041F25401C4F202010A68012822F030025B
:1005800008BF30320A607047042888BF7047DFE830
:1005900000F0030C19262F0041F20000C4F2020003
:1005A000026861F300020260704741F20000C4F289
:1005B0000200026801F0010122F4803242EA0141A6
:1005C0000160704741F20000C4F20200026801F0CD
:1005D000010122F0807242EA01610160704741F23C
:1005E0000000C4F20200026A61F300020262704776
:1005F00041F20000C4F20200426A61F3000242626A
:1006000070470000F0B541F20401C4F202010A682B
:10061000C2F3810341F20022022BC0F27A020CD015
:10062000002B49D10B6D9B0546D5CB6A9B0144BF7E
:1006300046F60042C0F2DC223EE00B688C6AC3F34F
:100640000047002C17D40C680B68C4F38344C3F331
:1006500041731D016E1C0F2C354618BF0225002B5F
:1006600018BF354605EB0403F7B940F60012C0F297
:100670003D025A4320E08B6A8C6AC3F3031E8B6AE7
:1006800040F6001CC0F23D0CC4F3082403F007033D
:100690001FB10D68AD0358BF94460CFB04F20EFA6F
:1006A00003F3B2FBF3F207E00F68BF0344BF40F669
:1006B0000012C0F23D025A4302600A6813A3C2F35B
:1006C00003129A5C036840F6966723FA02F24260CE
:1006D0000B68C0F60007C3F30223FB5C22FA03F3A6
:1006E000C3600B68C3F3C223FB5C0427DA4082605B
:1006F0000B68096807EA9363C1F38131194407A3C2
:10070000595CB2FBF1F10161F0BD00BF00000000D7
:10071000000000000102030406070809020406089D
:10072000020C081041F20002010CC4F202028958C6
:1007300000F01F0021FA00F000F0010070470000F7
:1007400041F200010020C4F2020100BF0A689203D6
:1007500004D4B0F5405F00F10100F7D30868C0F39E
:100760004040704741F2000200F01F034FF0010CBF
:10077000C4F2020201290CFA03F14FEA1040835837
:1007800014BF23EA010119438150704780B541F23B
:100790000402C4F20202136858B143F480331360B8
:1007A000136801280BD123F4003C01204FF0000E08
:1007B0000AE023F4803C00204FF0010E04E043F4F3
:1007C000003C00204FF0010EC2F800C01368002862
:1007D00061F3954318BF4FF0007013601368C1F3C5
:1007E000021161F35E73014618BF4FF08071136010
:1007F000936ABEF1000F08BF014623F0E060BEF12E
:10080000000F08BF0843906280BD000041F2000065
:10081000C4F20200016841F001010160016889072A
:10082000FCD5416821F00301416000BF416811F02F
:100830000C0FFBD101684FF6FF72CFF6F262114048
:1008400001600021416041F61071C1624FF48011D6
:1008500001634FF41F0181607047000041F2040101
:10086000C4F202010A6860F301020A6070470000E6
:1008700041F20400C4F202000068C0F38100704736
:10088000B0B543F600050446C4F2010528468021B0
:1008900000F064FA0028F9D0A1B2284600F050FA1E
:1008A0002046B0BD40F200424FF6FF71C0F2001288
:1008B000C0E9001270470000B0B58B790A88032B9D
:1008C0000BD07BB94979282901F00F0E18D01829CF
:1008D00008BF0261110616D12EE04FF0000E11067E
:1008E00011D129E003F0080C0B79C97903F0040356
:1008F000634401F0030103EB010E110603D11BE079
:100900004261110618D000234FF00F0C002104E0C3
:100910000131082903F104030ED022FA01F4E4079F
:10092000F6D004680CFA03F5AC43046004680EFAD0
:1009300003F52C430460EBE7B2F5807F38BFB0BD10
:10094000120A00234FF00F0C002104E001310829A6
:1009500003F104030ED022FA01F4E407F6D0446850
:100960000CFA03F5AC43446044680EFA03F52C43DB
:100970004460EBE7B0BD000044F20044C4F2000460
:1009800000F090F8FFF740FD00F08AF94FF4E130F5
:1009900000F044F940F2E40740F2E60640F69E6AB1
:1009A000C2F20007C2F20006C0F6000A0FF2CC083D
:1009B00007E000BF5046FFF74BFC4FF0000B87F8F5
:1009C00000B0387800B320A0FFF742FCBBF1040F61
:1009D000F0D14FF0000900BF2046802100F0BEF9A1
:1009E00050B118F809502046294600F0A9F92846C8
:1009F000FFF73AFC09F10109B9F1020FDADCBBF1AA
:100A0000040FE9D0D6E700BF1EA0FFF721FCBBF121
:100A1000030F08DD012038705046FFF719FCD0E7BE
:100A2000BBF1040FF6DA2046202100F097F90028E8
:100A3000F6D0204600F080F926F81B0000B2FFF740
:100A400013FC0BF1010BEBE753656E64696E6720D5
:100A50006D6573736167652066726F6D20415433F5
:100A6000324634313520746F204553503332206D77
:100A70006573736167652069732000003132333418
:100A800000000000526563656976656420646174E6
:100A9000612066726F6D2045535033322069732098
:100AA0000000000080B542F20000C4F202004FF4E2
:100AB000AA710160FFF7AAFE01200121FFF764FD82
:100AC000FFF73EFE0028FBD002202321FFF75EFE49
:100AD00002200121FFF758FD1920FFF723FE01280E
:100AE000FAD10020FFF71AFD0420FFF733FD0420A0
:100AF000FFF722FD0120FFF73BFD0220FFF7AEFECE
:100B0000FFF7B6FE0228FBD10020FFF731FD00F011
:100B100001F880BDB0B541F2040441F20025C4F2F1
:100B20000204C0F27A05FFF7A3FE02280CD00028C9
:100B300050D1206D80054DD5E06A800144BF46F656
:100B40000045C0F2DC2545E02068A16AC0F3004CF6
:100B500000291AD421682268C1F38341C2F341728B
:100B60001301581C0F29034618BF0223002A18BF7F
:100B70000346BCF1000F03EB010020D140F6001149
:100B8000C0F23D0100FB01F524E0A06AA36AC0F3B6
:100B9000031EA06A40F60011C0F23D01C3F3082312
:100BA000BCF1000F00F0070003D02268920358BF89
:100BB000294659430EFA00F0B1FBF0F50AE021682E
:100BC000890301D4454305E040F60011C0F23D0120
:100BD00000FB01F540F22000C2F200000560216830
:100BE00004A2C1F30311515C026822FA01F1016011
:100BF000B0BD00BF000000000000000001020304BF
:100C0000060708094EF21001CEF200010A68042816
:100C100022F0040208BF04320A607047F0B583B0C6
:100C20000225C0F21805044605F10C000121FFF76A
:100C300099FD28460121FFF795FD01AE3046FFF7EB
:100C400031FE40F2004043F60005C0F20810C4F245
:100C5000010502904FF40070A5F540570190384609
:100C60003146FFF729FE41F60000C0F20010029065
:100C70004FF48060019038463146FFF71DFE28464C
:100C800021460022002300F091F82846012100F0BF
:100C9000F9F82846012100F057F803B0F0BD000034
:100CA00070B582B01120C0F21C000121FFF75AFD7F
:100CB0000220C0F218000121FFF754FD6D462846BE
:100CC000FFF7F0FD40F2004044F20044C0F208108B
:100CD000C4F200040190042004F54446009030461C
:100CE0002946FFF7E9FD41F60000C0F2001001902F
:100CF0000820009030462946FFF7DEFD20464FF4DD
:100D000016510022002300F051F82046002100F087
:100D100091F82046002100F027F82046012100F03C
:100D2000B1F82046012100F0A3F82046012100F08F
:100D30000BF802B070BD0000406880B27047000040
:100D40006FF35F2141607047C26801F0010122F436
:100D5000005242EA4131C16070470000006808401B
:100D600018BF012070470000032988BF7047DFE8E3
:100D700001F00213060A416921F480710FE0416914
:100D800021F4807102E0416941F48071416141695F
:100D900041F4007141617047416941F480714161E2
:100DA000416921F400714161704700002DE9F04173
:100DB00086B001AD04462846984616460F46FFF712
:100DC00021FC43F6000105F10C00C4F201018C4244
:100DD00008BF05F1080000684CF6CD4100EB80002B
:100DE0004000B0FBF7F0CCF6CC41A0FB0112D108DB
:100DF00001EB8103A0EB43000428A0684FF001033E
:100E000088BF03EBD201C1EA0000A060E06806F0F1
:100E1000010120F4805040EA0130E060206908F0D0
:100E2000030120F4405040EA0130206106B0BDE8E3
:100E3000F081000002290DD001290FD0002918BF30
:100E40007047C16821F40071C160C16821F48061FC
:100E5000C1607047C16841F4007102E0C16821F4CB
:100E60000071C160C16841F48061C16070470000D9
:100E7000C26801F0010122F0040242EA8101C1606E
:100E800070470000C26801F0010122F0080242EA46
:100E9000C101C160704700000000010203040A0D97
:100EA00000000000C80E000800000020280000001C
:100EB000AC010008F00E000828000020C806000061
:100EC000C801000800000000040018000400180019
:100ED0000400180004000800200000000010014079
:100EE000001001400010014000127A0000000000D4
:04000005080001717D
:00000001FF
